                       STEERING WHEELXXXXXXXXXXXXXXXXXXUNT002JAGF-PACE    1995XXXXXXXXXXXXXXALLSTATE ADALLSTATE AUTO  095132018100111600 HIGH ST                                 ABILENE        KS000006600221700 MID RD                                  HAZARD         KY000004000331800 LOW DR                                  BOGALUSA       LA0000070001001ST1ALL000020C00003999I20191221        001ST2ALL000021C00004099I20191222        001ST3ALL000022C00004199I20191223
002SEAT BELT34567891011              XXXXXXXXXXXXXXXXXXUNT003PEU3008 SUV  1996XXXXXXXXXXXXXXMIDAS     MMIDAS          089112018110111900 TEAL ST                                 CALAIS         ME000000399222000 BLUE RD                                 BALTIMORE      MD000002033132100 TAN DR                                  BOSTON         MA0000002791002SE1MID000025C00004399I20191225        002SE2MID000026C00004499I20191227        002SE3MID000027C00004599I20191228
003IGNITION SWITC456789IGNITION SWITCXXXXXXXXXXXXXXXXXXUNT004   228 GRAN C1997XXXXXXXXXXXXXXMEINEKE   IMEINEKE        090222018120112200 SALT ST                                 LANSING        MI000004800122300 SUGAR RD                                ELY            MN000005600132400 GANT DR                                 GULFPORT       MS0000071233003IG1MEI000029C00004799I20191229        003IG2MEI000030C00004899I20191230        003IG3MEI000031C00004999I20191231
004CARBURETOR5678910125CARBURETOR    XXXXXXXXXXXXXXXXXXUNT001CHEPACIFICA  1998XXXXXXXXXXXXXXCARQUEST  SCARQUEST       091332019010112500 DRY ST                                  BOONEVILLE     MO000006300122600 WET RD                                  HAVRE          MT000005981432700 FRICK DR                                BEATRICE       NE0000068001004CA1CAR000033C00005199I20200102        004CA2CAR000034C00005299I20200103        004CA3CAR000035C00005399I20200104
005FUEL PUMP67891011121FUEL PUMP     XXXXXXXXXXXXXXXXXXUNT002FORMUSTANG   2020XXXXXXXXXXXXXXADVANCE   DADVANCE        092212019020112800 TOMAS ST                                SPARKS         NV000008900022900 BEATLE RD                               CONCORD        NH000000303133000 JOHN DR                                 PISCATAWAY     NJ0000007001005FU1ADV000037C00005599I20200106        005FU2ADV000038C00005699I20200107        005FU2ADV000039C00005799I20200108
006HEAD GASKET789101112HEAD GASKET   XXXXXXXXXXXXXXXXXXUNT003GM CAMERO        XXXXXXXXXXXXXXSAMS CLUB MSAMS CLUB      093122019030113100 FRANK AVE                               CARLSBAD       NM000008844123200 TIMOTHY                                 ALBANY         NY000000639033300 CARTER LN                               CONCORD        NC0000027006006HE1SAM000041C00005999I20120110        006HE2SAM000042C00001099I20200111        006HE3SAM000043C00001199I20200112
007TIMING BELT891011121TIMING BELT   XXXXXXXXXXXXXXXXXXUNT004VW           2001XXXXXXXXXXXXXXNAPA AUTO INAPA AUTO      094232019040113400 TIN AVE                                 BISMARK        ND000005800123500 ALUM ST                                 COLUMBUS       OH000004599933600 FRENCH LN                               ADA            OK0000074966007TI1NAP000001C00000199I20200114        007TI2NAP000002C00000299I20200115        007TI3NAP000003C00000399I20200116
008HUB ASSEMBLY91011121HUB ASSEMBLY  XXXXXXXXXXXXXXXXXXUNT00LTOYCAMRY     2002XXXXXXXXXXXXXXFIRESTONE SFIRESTONE      091312019050113700 FINE AVE                                HILLSBORO      OR000009790523800 DUST ST                                 PHILADELPHIA   PA000001500133900 MIST LN                                 KINGSTON       RI0000002801008HU1FIR000004C00000499I20200117        008H2UFIR000005C00000599I20200118        008H3UFIR000006C00000699I20200119
009SPARK PLUG1011121314SPARK PLUG    XXXXXXXXXXXXXXXXXXUNT005JAGF-PACE    2003XXXXXXXXXXXXXXAUTO ZONE DAUTO ZONE      090322019060114000 DRAPE ST                                FLORENCE       SC000002900124100 CORD AV                                 HURON          SD000005700134200 CAMP RD                                 MEMPHIS        TN0000038320009SP1AUT000007C00000799I20200120        009SP2AUT000008C00000899I20200121        009SP3AUT000009C00000999I20200122
010WIPERS11121314151617WIPERS        XXXXXXXXXXXXXXXXXXUNT003PEU3008 SUV  2004XXXXXXXXXXXXXX          MWALMART        079132019070114300 GRAPE ST                                AUSTIN         TX000007330024400 SCORD AV                                LAYTON         UT000008473234500 SCAMP RD                                BARRE          VT0000005601010WI1WAL000010C00001099I20200123        010WI2WAL000011C00001199I20200124        010WI3WAL000012C00001299I20200125
011TAIL LIGHT1213141516TAIL LIGHT    XXXXXXXXXXXXXXXXXXUNT004BMW228 GRAN C2005XXXXXXXXXXXXXXQUALITY AU QUALITY AUTO   089212019080114600 STICK LN                                BRISTOL        VA000002004024700 BAT RD                                  ABERDEEN       WA000009800134800 GERMAN CT                               HINTON         WV0000024701011TA1QUA000013C00001399I20200126        011TA2QUA000014C00001499I20200127        011TA3QUA000015C00001599I20200128
012FRONT STRUT000100304FRONT STRUT   XXXXXXXXXXXXXXXXXXUNT001CHRPACIFICA  2006XXXXXXXXXXXXXXMERCEDES  S               098322019090114900 PICKET LN                               HAYWORD        WI000005465525000 BATON RD                                LANDER         WY000008240035100 MANCKO CT                               ATHENS         AL0000036925012FR1MER000017C00001799I20200130        012FR2MER000018C00001899I20200131        012FR3MER000019C00001999I20200201
013REAR STRUT1415161718REAR STRUT    XXXXXXXXXXXXXXXXXXUNT002FORMUSTANG   2007XXXXXXXXXXXXXXPEUGOT    DPEUGOT         000332019100115200 RHEA LN                                 HOMER          AK000009995025300 FRAN RD                                 AVONDALE       AZ000008500135400 JANE CT                                 BENTON         AR0000072959013RE1PEU000021C00002199I20200203        013RE2PEU000022C00002299I20200204        013RE3PEU000023C00002399I20200205
014HEAD LIGHT1516171819HEAD LIGHT    XXXXXXXXXXXXXXXXXXUNT003GM CAMERO    2008XXXXXXXXXXXXXXCHRYSLER  KCHRYSLER       096112019110115500 TOP CIR                                 BAKERSFIELD    CA000009378925600 BIRD RD                                 CORTEZ         CO000008165835700 COWAN CT                                ENFIELD        CT0000006401014HE1CHR000025C00002599I20200207        014HE2CHR000026C00002699I20200208        014HE3CHR000027C00002799I20200209
01502 SENSOR1617181920202 SENSOR     XXXXXXXXXXXXXXXXXXUNT004VW JETTA     2009XXXXXXXXXXXXXXFORD AUTO IFORD AUTO      090422019120115800 PET LN                                  CHICAGO        IL000006062425900 SNAKE RD                                CLINTON        IA000005280936000 CUDE ST                                 EMPORIA        KS0000067954015021FOR000029C00002999I20200211        015022FOR000030C00003099I20200212        015023FOR000031C00003199I20200213
016TIRE ROD171819202122TIRE ROD      XXXXXXXXXXXXXXXXXXUNT001TOYCAMRY     2010XXXXXXXXXXXXXXCHEVROLET SCHEVROLET      091342020010116100 BIKE ST                                 BEDFORD        MA000000553326200 TREAD DR                                EASTON         MD000002033136300 TABLE RD                                SALLIS         MS0000039701016TI1CHE000033C00003399I20200215        016T2ICHE000034C00003499I20200216        016T23CHE000035C00003599I20200217
017DASH BOARD1819202122DASH BOARD    XXXXXXXXXXXXXXXXXXUNT002JAGF-PACE    2011XXXXXXXXXXXXXXPONTIAC   DPONTIAC        08931KXYZ123216400 ADAM DR                                 GRETNA         LA000007123226500 BETA RD                                 INDEPENDENCE   KS000006700036600 CHARLY ST                               FAIRFIELD      CT0000006928017DA1PON000037C00003799I20200219        017DA2PON000038C00003899I20200220        017DA3PON000039C00003999I20200221
018GEAR SHIFT1920212223GEAR SHIFT    XXXXXXXXXXXXXXXXXXUNT003PEU3008 SUV  2012XXXXXXXXXXXXXXVOLKSWAGONSVOLKSWAGON     092122020030116700 DELTA DR                                POWELL         WY000008290026800 EDWARD RD                               CENTRAILIA     WA000009940336900 FULLER ST                               DETROIT        MI0000049971018GE1VOL000041C00004199I20200223        018GE2VOL000042C00004299I20200224        018GE3VOL000043C00004399I20200225
019ENGINE20212223242526ENGINE        XXXXXXXXXXXXXXXXXXUNT004BMW228 GRAN C2013XXXXXXXXXXXXXXJAGUAR AUTIJAGUAR AUTO    09713202004011                                             COLUMBUS       GA000003177727100 HARRY RD                                KELLOGG        ID000008387637200 INGO ST                                 BREA           CA0000096162019EN1JAG000001C00001057I20200227        019EN2JAG000002C00001157I20200228        019EN3JAG000003C00001257I20200301
020BATTERY2122232425262BATTERY       XXXXXXXXXXXXXXXXXXUNT001CHRPACIFICA  2014XXXXXXXXXXXXXXBMW AUTO  DBMW AUTO       098232020050117300 JUMP RD                                 GENEVA         IN000004697027300 KEMP ST                                                NH000000339737400 LIMP LN                                 CLAYTON        MO0000065899020BA1BMW000005C00001457I20200303        020BA2BMW000006C00001557I20200304        020BA3BMW000007C00001657I20200305
021TIRE2223242526272829TIRE          XXXXXXXXXXXXXXXXXXUNT002FORMUSTANG   2015XXXXXXXXXXXXXXOREILLEYS DOREILLEYS      080332020060117500 MOAT RD                                 HASTINGS       NE000006811827600 NAP ST                                  NEWARK         NJ000000898937700 OAT LN                                  FARIBAULT        0000055001021TI1ORE000009C00001857I20200307        021TI2ORE000010C00001957I20200308        021TI3ORE000011C00002057I20200309
022FLOOR MAT23242526272FLOOR MAT     XXXXXXXXXXXXXXXXXXUNT003GM CAMERO    2016XXXXXXXXXXXXXXAAMACO    MAAMACO         090122020070117800 PALL RD                                 WARWICK        RI000000000027900 QUIP ST                                 DALLAS         TX000007330138000 RUST LN                                 FAIRFAX        VA0000020041022FL1AAM000010C00002257I20200311        022FL2AAM000011C00002357I20200312        022F3LAAM000012C00002457I20200313
023BLOWER MOTOR24252627BLOWER MOTOR  XXXXXXXXXXXXXXXXXXUNT004VW JETTA     2017XXXXXXXXXXXXXXGOOD YEAR IGOOD YEAR      079212020080118100 SAIL RD                                 AKRON          OH000004500048200 TRENT ST                                FARMINGTON     NM000008700138300 UMBLE LN                                CHANDLER       AZ0000085001023BL1GOO000014C00002657I20200315        023BL2GOO000015C00002757I20200316        023BL3GOO000016C00002857I20200317
024COMPRESSOR2526272829COMPRESSOR    XXXXXXXXXXXXXXXXXXUNT001TOYCAMRY     2018XXXXXXXXXXXXXXGENERAL MOSGENERAL MOTORS 092312020030718400 VAIL RD                                 GAFFNEY        SC000002994828500 WATER ST                                LEAD           SD000005779938600 XANDER LN                               ALCOA          TN0000012345024CO1GEN000018C00003257I20200319        024CO2GEN000019C00003357I20200320        024CO3GEN000020C00003457I20200321
025CONDENSOR26272829303CONDENSOR     XXXXXXXXXXXXXXXXXXUNT002JAGF-PACE    2019XXXXXXXXXXXXXXTOYOTA    DTOYOTA         093332020030818900 BIND LN                                 SHARON         VT000009999928800 SALIS ST                                LOGAN          UT000008450138800 ARMOR ST                                PLYMOUTH       VT0000005800025CO1TOY000024C00003657I20200323        025CO2TOY000025C00003757I20200324        025CO3TOY000026C00003857I20200325
026EVAPORATOR2728293031EVAPORATOR    XXXXXXXXXXXXXXXXXXUNT003PEU3008 SUV  1990XXXXXXXXXXXXXXALLSTATE AMALLSTATE AUTO  095112020030919000 ZANDY RD                                ALTOONA        PA000001964029100 APEX ST                                 CORVALLIS      OR000009785139200 BENDON LN                               DENVER         CO0000081500      ALL000027C00040657I20200327        026EV2ALL000028C00004757I20200328        026EV3ALL000029C00004857I20200329
027EXPAN VALVE282930313EXPAN VALVE   XXXXXXXXXXXXXXXXXXUNT004BMW228 GRAN C1991XXXXXXXXXXXXXXMIDAS     IMIDAS          089222020031319300 COOK RD                                 CONWAY         AR000007200529400 DART ST                                 GAINESVILLE    DE000001982539500 ELF LN                                  DIST OF COLUM  DC0000020039027EX1MID000001C00000535I20200331        027EX2   000002C00000635I20200401        027EX3MID000003C00000735I20200402
028AIR DUCT HOSE2930313AIR DUCT HOSE XXXXXXXXXXXXXXXXXXUNT001CHRRPACIFICA 1992XXXXXXXXXXXXXXMEINEKE   SMEINEKE        090332020031719600 FIGER RD                                MINNEAPOLIS    MN000005676329700 GENET ST                                MONROE         LA000007123439800 HART LN                                 CLIFTON        AZ0000086556028AI1MEI000005C00000935I20200401        028AI2MEI000060C00001035I20200402        028AI3MEI000070C00001135I
029HEATER CORE303132333HEATER CORE   XXXXXXXXXXXXXXXXXXUNT002FORMUSTANG   1993XXXXXXXXXXXXXXCARQUEST  DCARQUEST       091112020032119900 INKSTER RD                              CARBONDALE     IL000006000121000 JAMISON ST                              ASHLAND        KY000004278831100 KEMPER DR                               AUBURN         ME0000003965029HE1CAR000000E00001335I20200405        029HE2CAR000010C00001435I20200406        029HE3CAR000011C00001535I20200408
030CLUTCH31323334353637CLUTCH        XXXXXXXXXXXXXXXXXXUNT003GM CAMERO    1994XXXXXXXXXXXXXXADVANCE   MADVANCE        092122020032511200 LIMPAN RD                               AUBURN         NY000001000121300 MUSTER ST                               DUNCAN         OK000007300131400 NAPKIN DR                               HILO           HI0000096795030CL1ADV000013C00001735I20200409        030CL2ADV999999C00001835I20200410        030CL3ADV000015C00001935I20200411
031HEATER HOSE323334353HEATER HOSE   XXXXXXXXXXXXXXXXXXUNT004VW JETTA     1995XXXXXXXXXXXXXXSAMS CLUB ISAMS CLUB      093232020032911500 OMAR RD                                 BOURNE         MA000000554421600 PARTIK ST                               ELKO           NV000008950031700 QUINN DR                                JUNEAU         AK0000099930031HE1SAM000017C00002135I20200413        031HE2SAM000018C00002235I20200414        031HE3SAM000019C00000000020200415
032A/C SERVICE KT333435A/C SERVICE KTXXXXXXXXXXXXXXXXXXUNT001TOYCAMRY     1996XXXXXXXXXXXXXXNAPA AUTO SNAPA AUTO      094312020040211800 RACINE AVE                              SANFORD        FL000003499721900 SINTER DR                               DARIEN         GA000003990132000 TEMPT CIR                               AUBURN         AL0000035900032AC1NAP000021C00002535I20200417        032AC2NAP000022C99999999I20200418        032AC3NAP000023C00002735I20200419
033A/C RELAY34353637383A/C RELAY     XXXXXXXXXXXXXXXXXXUNT002JAGF-PACE    1997XXXXXXXXXXXXXXFIRESTONE DFIRESTONE      091132020040612100 ENCINE AVE                              BELFAST        ME000000390922200 RETINS DR                               DERRY          NH000000353232300 TAFT CIR                                COLUMBIA       MD0000020335033AR1FIR000025C00002935I20200421        033AR2FIR000026C00003035I99999999        033AR3FIR000027C00003135I20200423
034ALTERNATOR3536373839ALTERNATOR    XXXXXXXXXXXXXXXXXXUNT003PEU3008 SUV  1998XXXXXXXXXXXXXXAUTO ZONE MAUTO ZONE      090232020041012400 UMBER AVE                               DUBUQUE        IA000006811922500 VINCE DR                                RUSTON         LA000007149732600 WELT CIR                                BEREA          KY0000041930034AL1AUT000029C00003335I20200425        034AL2AUT000030C00003435I20200426        034AL3AUT000031C00003535I2020042788888888
035STARTER3637383949414STARTER       XXXXXXXXXXXXXXXXXXUNT004BMW228 GRAN C1999XXXXXXXXXXXXXXWALMART   IWALMART        079112020041412700 XANADU AVE                              JACKSON        MS000003860122800 YELLOW DR                               FERGUSON       MO000006569932900 ZOLAR CIR                               ELY            NV0000088901035ST1WAL000001C00000150I2020042920200329035ST2WAL000002C00000250I20200430        035ST3WAL000003C00000350I20200501
036BRAKE DRUM3738394041BRAKE DRUM    XXXXXXXXXXXXXXXXXXUNT001HIJPACIFICA  2000XXXXXXXXXXXXXXQUALITY AUS               089322020041913000 AGATH AVE                               MEDFORD        OR000009779923100 BURNS DR                                PITTSBURGH     PA000001712533200 COLON CIR                               SEATTLE        WA0000099123036BR1QUA000005C00000550I20200503        036BR2QUA000006C00000650I20200504        036BR3QUA000007C00000750I20200505
037BRAKE LINE3839404142BRAKE LINE    XXXXXXXXXXXXXXXXXXUNT002FORMUSTANG   2001XXXXXXXXXXXXXXMERCEDES  DMERCEDES       098172020042003300 DONNA AVE                               GREENFIELD     IN000004600123400 ELFIN DR                                BOONE          IA000006812033500 FURNA CIR                               BATH           ME0000003901037BR1MER000009C00000950I20200507        037BR2MER000010C00001050I20200508        037BR3   000011C00001150I20200509
038ROTOR394041424344454ROTOR         XXXXXXXXXXXXXXXXXXUNT003GM CAMERO    3456XXXXXXXXXXXXXX          MPEUGOT         097222020042113600 ADONA AVE                               LIBERAL        KS000006650023700 NILFEN DR                               JOPLIN         MO000006312793800 ANRAF CIR                               DURANT         OK0000073199      PEU000013C00001350I20200502        038RO2PEU000014C99999999I20200503        038RO2PEU000014C00001450I20200504
039BRAKE CABLE404142434BRAKE CABLE   XXXXXXXXXXXXXXXXXXUNT004VW JETTA     2003XXXXXXXXXXXXXXCHRYSLER  ICHRYSLER       096122020042213900 GENTIL AVE                              TIVERTON       A0000000283524000 HALLOW DR                               FLORENCE       AZ000008655634100 INGRID CIR                              CROSSETT       AZ0000086444039BR1CHR000017C00001750I20200506        039BR2CHR000018C00001850I20200507        039BR3CHR000019C00001950I20200508
040THRUST WASHER4142434THRUST WASHER XXXXXXXXXXXXXXXXXXUNT001TOYCAMRY     2004XXXXXXXXXXXXXXFORD AUTO SFORD AUTO      090332020042614200 JONAS AVE                               CLEVELAND      OH000004355524300 KELLI DR                                BEND           OR000009700134400 LONNI CT                                KELSO          WA0000098730040TH1FOR000021C00002250I20200510        040TH2FOR000022C00002350I20200511        040TH3FOR000023C00002450I20200512
041CRANK SHAFT424344454CRANK SHAFT   XXXXXXXXXXXXXXXXXXUNT002JAGF-PACE    2005XXXXXXXXXXXXXXCHEVROLET DCHEVROLET      091212020043014500 MARY AVE                                HOUSTON        TX000007500124600 NANCY DR                                OGDEN          UT000008400134700 OSCAR CT                                RUTLAND        VT0000005702041CR1CHE000025C00002650I20200514        041CR2CHE000026C00002750I20200515        041CR3CHE000027C00002850I20200516
042OIL PAN4344454647484OIL PAN       XXXXXXXXXXXXXXXXXXUNT003PEU3008 SUV  2006XXXXXXXXXXXXXXPONTIAC   MPONTIAC        089112020050114800 PAUL RD                                 ENID           OK000007340124900 QUINN DR                                DIST OF COLUM  DC000002004235000 ROSE CT                                 BURBANK        CA0000095999042OI1PON000001C00000175I20200518        042OI2PON000002C00000275I20200519        042OI3PON000003C00000375I20200520
043OIL PUMP444546474849OIL PUMP      XXXXXXXXXXXXXXXXXXUNT004BMW228 GRAN C2007XXXXXXXXXXXXXXVOLKSWAGONIVOLKSWAGON     092132020050215100 SLACK RD                                DURHAM         NC000002890925200 TINSEL DR                               BATH           WV000002688635300 UTAH CT                                 BUFFALO        WY0000082299043OI1VOL000005C00000575I20200522        043OI2VOL000006C00000675I20200524        043OI3VOL000007C00000775I20200525
044BALL JOINT4546474849BALL JOINT    XXXXXXXXXXXXXXXXXXUNT001CHRPACIFICA  2008XXXXXXXXXXXXXXJAGUAR AUTSJAGUAR AUTO    097312020050615400 VANCOR RD                               MILWAUKEE      WI000005300125500 WINTER DR                               NOME           AK000009959935600 XAVIER CT                               FALLON         NV0000089883044BA1JAG000009C00000975I20200526        044BA2JAG000010C00001075I20200527        044BA3JAG000011C00001175I20200528
045LATERAL ARM464748495LATERAL ARM   XXXXXXXXXXXXXXXXXXUNT002FORMUSTANG   2009XXXXXXXXXXXXXXBMW AUTO  DBMW AUTO       098212020050715700 YORK RD                                 MADISON        SD000005753225800 ZINDER DR                               BARRINGTON     RI000000290135900 ASPEN CT                                KAPAA          HI0000096701045LA1BMW000013C00001375I20200530        045LA2BMW000014C00001475I20200601        045LA3BMW000015C00001575I20200602
046SWAY BAR474849505152SWAY BAR      XXXXXXXXXXXXXXXXXXUNT004VW JETTA     2011XXXXXXXXXXXXXXAAMACO    IAAMACO         090112020050916300 ELGIN RD                                POWDER SPRINGS CO000008120026400 FAUST DR                                GLOBE          AZ000008654136500 GREGOR CT                               FARMINGTON     CT0000006928046SW1AAM000021C00002175I20200607        046SW2AAM000022C00002275I20200608        046SW3AAM000023C00002375I20200609
046TRAILING ARM47484950TRAILING ARM  XXXXXXXXXXXXXXXXXXUNT003GM CAMERO    2010XXXXXXXXXXXXXXOREILLEYS MOREILLEYS      080232020050816000 BRACK RD                                DAYTONA        FL000003355026100 CREW DR                                 DALTON         GA000003990136200 DAVID CT                                HOLLYWOOD      DE0000019701046TR1ORE000017C00001775I20200603        046TR2ORE000018C00001875I20200605        046TR3ORE000019C00001975I20200606
047STABILIZER BAR485950STABILIZER BARXXXXXXXXXXXXXXXXXXUNT001TOYCAMRY     2012XXXXXXXXXXXXXXGOOD YEAR SGOOD YEAR      079322020051016600 NINGLE RD                               HOBART         IN000004799726700 FITCH DR                                DANVILLE       KY000004100036800 ROGER CT                                BURLINGTON     IA0000051390047ST1GOO000025C00002575I20200611        047ST2GOO000026C00002675I20200612        047ST3GOO000027C00002775I20200613
048CV BOOT4950515253545CV BOOT       XXXXXXXXXXXXXXXXXXUNT002JAGF-PACE    2013XXXXXXXXXXXXXXGENERAL MODGENERAL MOTORS 092132020051116900 HARKIN RD                               CAIRO          IL000006299927000 IONNA DR                                ELKTON         MD000002079737100 JILLIAN CT                              GREENWOOD      MS0000039776048CV1GEN000001C00000125I20200615        048CV2GEN000002C00000225I20200616        048CV3GEN000003C00000325I20200617
049U JOINT5051525354555U JOINT       XXXXXXXXXXXXXXXXXXUNT003PEU3008 SUV  2014XXXXXXXXXXXXXXTOYOTA    MTOYOTA         093212020051217200 KYRA RD                                 ABINGTON       MA000000100127300 LYMON DR                                BRONX          NY000000639037400 MUSTER CT                               CHARLOTTE      NC0000027950049UJ1TOY000005C00000525I20200619        049UJ2TOY000006C00000625I20200620        049UJ2TOY000007C00000725I20200621
050TRANSMISSION51525354TRANSMISSION  XXXXXXXXXXXXXXXXXXUNT004BMW228 GRAN C2015XXXXXXXXXXXXXXALLSTATE AIALLSTATE AUTO  095322020051317500 NOLA RD                                 BRYAN          TX000007550127600 OPPER DR                                ATHENS         TN000003701037700 PRUITT CT                               NEWPORT        RI0000002875050TR1ALL000009C00000925I20200623        050TR2ALL000010C00001025I20200624        050TR3ALL000011C00001125I20200625
051AIR FILTER5253545556AIR FILTER    XXXXXXXXXXXXXXXXXXUNT001CHRPACIFICA  2016XXXXXXXXXXXXXXMIDAS     SMIDAS          089332020051417800 QUILL RD                                AIKEN          SC000002980027900 RANCH DR                                SALINA         KS000006699938000 SUDDER LN                               HOMESTEAD      DE0000019980051AI1MID000013C00001325I20200627        051AI2MID000014C00001425I20200628        051AI3MID000015C00001525I20200629
052OIL FILTER5345555657OIL FILTER    XXXXXXXXXXXXXXXXXXUNT002FORMUSTANG   2017XXXXXXXXXXXXXXMEINEKE   DMEINEKE        090112020051818100 TULLEY RD SUITE 501                     ENGLEWOOD      CO000008150128200 UBER DR                                 BESSEMER       AL000003604238300 VANCE LN                                GROTON         CT0000006725052OI1MEI000017C00001725I20200701        052OI2MEI000018C00001825I20200702        052OI3MEI000019C00001925I20200703
053AT FILTER KIT5455565AT FILTER KIT XXXXXXXXXXXXXXXXXXUNT003GM CAMERO    2018XXXXXXXXXXXXXXCARQUEST  MCARQUEST       091222020051918100 WALKER RD                THIRD FLOOR    FRANKFORT      KY000004103028200 XENIA DR                                PIPESTONE      MN000005580038300 YORK LN                                 MIDDLETON      RI0000002922053AT1CAR000021C00002125I20200705        053AT2CAR000022C00002225I20200706        053AT3CAR000023C00002325I20200707
054OIL DRAIN55565758596OIL DRAIN     XXXXXXXXXXXXXXXXXXUNT004VW JETTA     2019XXXXXXXXXXXXXXADVANCE   IADVANCE        092332020052018400 ZENOBA RD FIFTH FLOOR    PO BOX 92      MONTGOMERY     AL000003583028500 AZURE DR                                KINGMAN        AZ000008600038600 BOUNCE LN                               HARRISON       AR0000072804054OI1ADV000025C00002625I20200709        054OI2ADV000026C00002625I20200710        054OI2ADV000030C00003025I20200711
055OIL DRAIN PLUG565758OIL DRAIN PLUGXXXXXXXXXXXXXXXXXXUNT001TOYCAMRY     1990XXXXXXXXXXXXXXSAMS CLUB SSAMS CLUB      093312020052118700 CLOCK RD                                GENOA          NV000008898328800 DANUBE DR                               CANTON         IL000006230538900 ELKHART LN                              LINCOLN        NE0000068122055OI1SAM000001C00000119I20200713        055OI2SAM000002C00000219I20200714        055OI3SAM000003C00000319I20200715
056CABIN AIR FILT575859CABIN AIR FILTXXXXXXXXXXXXXXXXXXUNT002JAGF-PACE    1991XXXXXXXXXXXXXXNAPA AUTO DNAPA AUTO      094122020052219000 FEDDER RD                               EUGENE         OR000009730029100 GENTY DR                                ALTA           UT000008478439200 HOPE LN                                 LEXINGTON      VA0000020040056CA1NAP000005C00000519I20200717        056CA2NAP000006C00000619I20200718        056CA2NAP000006C00000619I20200719
057PCV VALVE58596061707PCV VALVE     XXXXXXXXXXXXXXXXXXUNT003PEU3008 SUV  1992XXXXXXXXXXXXXXFIRESTONE MFIRESTONE      091232020052319300 INKSTER RD                              GRAFTON        WV000002632129400 JANSEN DR                               OSHKOSH        WI000005499039500 KIPPLER LN                              CASPER         WY0000082001057PC1FIR000009C00000919I20200721        057PC2FIR000010C00001019I20200722        057PC2FIR000010C00001019I20200723
058IGNITION COIL5960616IGNITION COIL XXXXXXXXXXXXXXXXXXUNT004BMW228 GRAN C1993XXXXXXXXXXXXXXAUTO ZONE IAUTO ZONE      090132020052419600 LEMON ST                                NASHVILLE      TN000003858929700 MAPLE DR                                BURNS          OR000009792039800 NAPLES AVE                              CANTON         OH0000043001058IG1AUT000013C00001319I20200725        058IG2AUT000014C00001419I20200726        058IG3AUT000015C00001519I20200727
059IGNITION HOUSE606162IGNITION HOUSEXXXXXXXXXXXXXXXXXXUNT001CHRPACIFICA  1994XXXXXXXXXXXXXXWALMART   SWALMART        079322020052511000 OPAL ST                                 MONTGOMERY     AL000003650021100 PARK AVE                                KODIAK         AK000009975031200 QUIMBLE DR                              MESA           AZ0000085900059IG1WAL000017C00001719I20200729        059IG2WAL000018C00001819I20200730        059IG3WAL000019C00001919I20200801
060NGK GLOW PLUG6162636NGK GLOW PLUG XXXXXXXXXXXXXXXXXXUNT002FORMUSTANG   1995XXXXXXXXXXXXXXQUALITY AUDQUALITY AUTO   089132020052611300 LAPO ST                                 BILLINGS       MT000005900121400 KARP AVE                                OMAHA          NE000006936731500 BLIMIE DR                               RENO           NV0000088999060NG1QUA000021C00002119I20200802        060NG2QUA000025C00002519I20200803        060NG3QUA000029C00002919I20200804
061TRUNK LATCH626364656TRUNK LATCH   XXXXXXXXXXXXXXXXXXUNT003GM CAMERO    1996XXXXXXXXXXXXXXMERCEDES  MMERCEDES       098212020052711600 RIPPLE ST                               CARMEL         CA000009372321700 STARR AVE                               GREELEY        CO000008099931800 TOPPLE DR                               DIST OF COLUM  DC0000020001061TR1MER000001C00000165I20200806        061TR2MER000002C00000265I20200807        061TR3MER000003C00000365I20200808
062TRUNK COVER636465667TRUNK COVER   XXXXXXXXXXXXXXXXXXUNT004VW JETTA     1997XXXXXXXXXXXXXXPEUGOT    IPEUGOT         097122020052811900 EPPLE ST                                BIRMINGHAM     AL000003540022000 RASTA AVE                               HARLAN         KY000004260032100 EPPLETT DR                              GILETTE        WY0000083128062TR1PEU000005C00000565I20200810        062TR2PEU000006C00000665I20200811        062TR2PEU000006C00000765I20200813
063RADIO646566676869707RADIO         XXXXXXXXXXXXXXXXXXUNT001TOYCAMRY     1998XXXXXXXXXXXXXXCHRYSLER  SCHRYSLER       096332020052912200 UMPIRE ST                               DOUGLAS        GA000003111122300 VOXX AVE                                AUSTIN         MN000005639032400 WYMAN DR                                MANDAN         ND0000058856063RA1CHR000009C00000965I20200814        063RA2CHR000010C00001065I20200815        063RA3CHR000011C00001165I20200816
064CONSOLE6566676869707CONSOLE       XXXXXXXXXXXXXXXXXXUNT002JAGF-PACE    1999XXXXXXXXXXXXXXFORD AUTO DFORD AUTO      090112020053012500 XANAX ST                                DILAN          MT000005993722600 YACK AVE                                TUSCALOOSA     AL000003609932700 ZEBBRA DR                               TEMPE          AZ0000086200064CO1FOR000013C00001365I20200818        064CO2FOR000014C00001465I20200819        064CO2FOR000015C00001565I20200820
123MUFFLER1234567891011MUFFLER       MUFF0002MUFFLER123UNT003JAGF-PACE 30T2019              1234567890IKJ IMPORT PARTS0013120200826115 MAIN STREET                               SACRAMENTO     CA0000095822210 KING STREET                               OGDEN          UT0000084055311 PINE STREET                               BUTE           MT0000059032PO1234KJI000000C00003759I2020082620200905PO1235LMN000000G00000459I2020071520200918PO1236OPQ000000B00003391H2020080720200905
456REAR VIEW MIR0000000REAR VIEW MIR XXXXXXXXXXXXXXXXXXUNT001TOYCAMRY     1994XXXXXXXXXXXXXXTOYOTA    STOYOTA         093322018090111300 GEO ST                                  CHICAGO        IL000006003421400 NEON RD                                 GARY           IN000004788831500 CLARK DR                                AMES           IA0000050001456RE2TOY000017C00003599I20191217        456RE2TOY000018C00003699I20191218        456RE2TOY000019C00003699I20191218
532BRAKE PADS1389389283BRAKE PADS    XXXXXXXXXXXXXXXXXXUNT002FORMUSTANG   1991XXXXXXXXXXXXXXAAMACO    DAAMACO         09012201806011400 NAPER ST                                 CAMDEN         AR00000716012500 BRIGHT RD                                ARCADIA        CA00000900013600 LAMPIN DR                                ASPEN          CO0000080001532BR1AAM000005C00002399I20191205        532BR2AAM000006C00002499I20191206        532BR2AAM000006C00002499I2019120620200903
534EXHAUST PIPE00010030EXHAUST PIPE  XXXXXXXXXXXXXXXXXXUNT004VW JETTA     1993XXXXXXXXXXXXXXGENERAL MOIGENERAL MOTORS 092312018080111000 RED ST                                  CALHOUN        GA000003009921100 BROWN RD                                HANALEI        HI000009689831200 BLACK DR                                POCATELLO      ID0000083201534EX1GEN000013C00003199I20191213        534EX2GEN000014C00003299I20191214        534EX3GEN000014C00003299I20191215
724PHLANGE1123378938989PHLANGE       XXXXXXXXXXXXXXXXXXUNT003GM CAMERO    1992XXXXXXXXXXXXXXGOOD YEAR MGOOD YEAR      07923201807011700 APPLE ST                                 BRISTOL        CT00000065312800 PEAR RD                                  WILMINGTON     DE00000197803900 GRAPE DR                                 MIAMI          FL0000032004724MU1GOO000009C00002599I20191209        724MU2GOO000010C00002699I20191210        724MU3GOO000011C00002799I2019121120200902
789FUEL PUMP34567891011FUEL PUMP     MUFF0002MUFFLER123UNT003JAGF-PACE 30T2017              1234567890IKJ IMPORT PARTS0013120200826115 MAIN STREET                               SACRAMENTO     CA0000095822210 KING STREET                               OGDEN          UT0000084055311 PINE STREET                               BUTE           MT0000059032PO1234KJI000000C00003759I2020082620200905PO1235LMN000000G00000459I2020071520200918PO1236OPQ000000C00003391I2020080720200905
910SEAT COVER1234567891SEAT COVER    MUFF0002MUFFLER123UNT003JAGF-PACE 30T2020                        IKJ IMPORT PARTS0013120200826 15 MAIN STREET                               SACRAMENTO     CA0000095822210 KING STREET                               OGDEN          UT0000084055311 PINE STREET                               BUTE           MT0000059032PO1234KJI000000C00003759I2020082620200905      LMN000000G00000459I2020071520200918PO1236OPQ000000B00003391H2020080720200905
923BRAKE SHOES838789101BRAKE SHOES   XXXXXXXXXXXXXXXXXXUNT001CHRPACIFICA  2019XXXXXXXXXXXXXXOREILLEYS SOREILLEYS      08031201805011100 MAIN ST                                  ANNISTON       AL00000350042200 KING RD                                  ANCHORAGE      AK00000995013300 FRANKLIN DR                              AJO            AZ0000086176923BR1ORE000001C00001999I20191201        923BR2ORE000002C00002099I20191202        923BR3ORE000003C00002199I2019120320200904
