029HEATER CORE303132333HEATER CORE   XXXXXXXXXXXXXXXXXXUNT002FORMUSTANG   1993XXXXXXXXXXXXXXCARQUEST  DCARQUEST       091112020032119900 INKSTER RD                              CARBONDALE     IL000006000121000 JAMISON ST                              ASHLAND        KY000004278831100 KEMPER DR                               AUBURN         ME0000003965029HE1CAR000000E00001335I20200405        029HE2CAR000010C00001435I20200406        029HE3CAR000011C00001535I20200408
040THRUST WASHER4142434THRUST WASHER XXXXXXXXXXXXXXXXXXUNT001TOYCAMRY     2004XXXXXXXXXXXXXXFORD AUTO SFORD AUTO      090332020042614200 JONAS AVE                               CLEVELAND      OH000004355524300 KELLI DR                                BEND           OR000009700134400 LONNI CT                                KELSO          WA0000098730040TH1FOR000021C00002250I20200510        040TH2FOR000022C00002350I20200511        040TH3FOR000023C00002450I20200512
041CRANK SHAFT424344454CRANK SHAFT   XXXXXXXXXXXXXXXXXXUNT002JAGF-PACE    2005XXXXXXXXXXXXXXCHEVROLET DCHEVROLET      091212020043014500 MARY AVE                                HOUSTON        TX000007500124600 NANCY DR                                OGDEN          UT000008400134700 OSCAR CT                                RUTLAND        VT0000005702041CR1CHE000025C00002650I20200514        041CR2CHE000026C00002750I20200515        041CR3CHE000027C00002850I20200516
042OIL PAN4344454647484OIL PAN       XXXXXXXXXXXXXXXXXXUNT003PEU3008 SUV  2006XXXXXXXXXXXXXXPONTIAC   MPONTIAC        089112020050114800 PAUL RD                                 ENID           OK000007340124900 QUINN DR                                DIST OF COLUM  DC000002004235000 ROSE CT                                 BURBANK        CA0000095999042OI1PON000001C00000175I20200518        042OI2PON000002C00000275I20200519        042OI3PON000003C00000375I20200520
043OIL PUMP444546474849OIL PUMP      XXXXXXXXXXXXXXXXXXUNT004BMW228 GRAN C2007XXXXXXXXXXXXXXVOLKSWAGONIVOLKSWAGON     092132020050215100 SLACK RD                                DURHAM         NC000002890925200 TINSEL DR                               BATH           WV000002688635300 UTAH CT                                 BUFFALO        WY0000082299043OI1VOL000005C00000575I20200522        043OI2VOL000006C00000675I20200524        043OI3VOL000007C00000775I20200525
044BALL JOINT4546474849BALL JOINT    XXXXXXXXXXXXXXXXXXUNT001CHRPACIFICA  2008XXXXXXXXXXXXXXJAGUAR AUTSJAGUAR AUTO    097312020050615400 VANCOR RD                               MILWAUKEE      WI000005300125500 WINTER DR                               NOME           AK000009959935600 XAVIER CT                               FALLON         NV0000089883044BA1JAG000009C00000975I20200526        044BA2JAG000010C00001075I20200527        044BA3JAG000011C00001175I20200528
045LATERAL ARM464748495LATERAL ARM   XXXXXXXXXXXXXXXXXXUNT002FORMUSTANG   2009XXXXXXXXXXXXXXBMW AUTO  DBMW AUTO       098212020050715700 YORK RD                                 MADISON        SD000005753225800 ZINDER DR                               BARRINGTON     RI000000290135900 ASPEN CT                                KAPAA          HI0000096701045LA1BMW000013C00001375I20200530        045LA2BMW000014C00001475I20200601        045LA3BMW000015C00001575I20200602
046SWAY BAR474849505152SWAY BAR      XXXXXXXXXXXXXXXXXXUNT004VW JETTA     2011XXXXXXXXXXXXXXAAMACO    IAAMACO         090112020050916300 ELGIN RD                                POWDER SPRINGS CO000008120026400 FAUST DR                                GLOBE          AZ000008654136500 GREGOR CT                               FARMINGTON     CT0000006928046SW1AAM000021C00002175I20200607        046SW2AAM000022C00002275I20200608        046SW3AAM000023C00002375I20200609
046TRAILING ARM47484950TRAILING ARM  XXXXXXXXXXXXXXXXXXUNT003GM CAMERO    2010XXXXXXXXXXXXXXOREILLEYS MOREILLEYS      080232020050816000 BRACK RD                                DAYTONA        FL000003355026100 CREW DR                                 DALTON         GA000003990136200 DAVID CT                                HOLLYWOOD      DE0000019701046TR1ORE000017C00001775I20200603        046TR2ORE000018C00001875I20200605        046TR3ORE000019C00001975I20200606
047STABILIZER BAR485950STABILIZER BARXXXXXXXXXXXXXXXXXXUNT001TOYCAMRY     2012XXXXXXXXXXXXXXGOOD YEAR SGOOD YEAR      079322020051016600 NINGLE RD                               HOBART         IN000004799726700 FITCH DR                                DANVILLE       KY000004100036800 ROGER CT                                BURLINGTON     IA0000051390047ST1GOO000025C00002575I20200611        047ST2GOO000026C00002675I20200612        047ST3GOO000027C00002775I20200613
048CV BOOT4950515253545CV BOOT       XXXXXXXXXXXXXXXXXXUNT002JAGF-PACE    2013XXXXXXXXXXXXXXGENERAL MODGENERAL MOTORS 092132020051116900 HARKIN RD                               CAIRO          IL000006299927000 IONNA DR                                ELKTON         MD000002079737100 JILLIAN CT                              GREENWOOD      MS0000039776048CV1GEN000001C00000125I20200615        048CV2GEN000002C00000225I20200616        048CV3GEN000003C00000325I20200617
049U JOINT5051525354555U JOINT       XXXXXXXXXXXXXXXXXXUNT003PEU3008 SUV  2014XXXXXXXXXXXXXXTOYOTA    MTOYOTA         093212020051217200 KYRA RD                                 ABINGTON       MA000000100127300 LYMON DR                                BRONX          NY000000639037400 MUSTER CT                               CHARLOTTE      NC0000027950049UJ1TOY000005C00000525I20200619        049UJ2TOY000006C00000625I20200620        049UJ2TOY000007C00000725I20200621
050TRANSMISSION51525354TRANSMISSION  XXXXXXXXXXXXXXXXXXUNT004BMW228 GRAN C2015XXXXXXXXXXXXXXALLSTATE AIALLSTATE AUTO  095322020051317500 NOLA RD                                 BRYAN          TX000007550127600 OPPER DR                                ATHENS         TN000003701037700 PRUITT CT                               NEWPORT        RI0000002875050TR1ALL000009C00000925I20200623        050TR2ALL000010C00001025I20200624        050TR3ALL000011C00001125I20200625
051AIR FILTER5253545556AIR FILTER    XXXXXXXXXXXXXXXXXXUNT001CHRPACIFICA  2016XXXXXXXXXXXXXXMIDAS     SMIDAS          089332020051417800 QUILL RD                                AIKEN          SC000002980027900 RANCH DR                                SALINA         KS000006699938000 SUDDER LN                               HOMESTEAD      DE0000019980051AI1MID000013C00001325I20200627        051AI2MID000014C00001425I20200628        051AI3MID000015C00001525I20200629
052OIL FILTER5345555657OIL FILTER    XXXXXXXXXXXXXXXXXXUNT002FORMUSTANG   2017XXXXXXXXXXXXXXMEINEKE   DMEINEKE        090112020051818100 TULLEY RD SUITE 501                     ENGLEWOOD      CO000008150128200 UBER DR                                 BESSEMER       AL000003604238300 VANCE LN                                GROTON         CT0000006725052OI1MEI000017C00001725I20200701        052OI2MEI000018C00001825I20200702        052OI3MEI000019C00001925I20200703
053AT FILTER KIT5455565AT FILTER KIT XXXXXXXXXXXXXXXXXXUNT003GM CAMERO    2018XXXXXXXXXXXXXXCARQUEST  MCARQUEST       091222020051918100 WALKER RD                THIRD FLOOR    FRANKFORT      KY000004103028200 XENIA DR                                PIPESTONE      MN000005580038300 YORK LN                                 MIDDLETON      RI0000002922053AT1CAR000021C00002125I20200705        053AT2CAR000022C00002225I20200706        053AT3CAR000023C00002325I20200707
054OIL DRAIN55565758596OIL DRAIN     XXXXXXXXXXXXXXXXXXUNT004VW JETTA     2019XXXXXXXXXXXXXXADVANCE   IADVANCE        092332020052018400 ZENOBA RD FIFTH FLOOR    PO BOX 92      MONTGOMERY     AL000003583028500 AZURE DR                                KINGMAN        AZ000008600038600 BOUNCE LN                               HARRISON       AR0000072804054OI1ADV000025C00002625I20200709        054OI2ADV000026C00002625I20200710        054OI2ADV000030C00003025I20200711
055OIL DRAIN PLUG565758OIL DRAIN PLUGXXXXXXXXXXXXXXXXXXUNT001TOYCAMRY     1990XXXXXXXXXXXXXXSAMS CLUB SSAMS CLUB      093312020052118700 CLOCK RD                                GENOA          NV000008898328800 DANUBE DR                               CANTON         IL000006230538900 ELKHART LN                              LINCOLN        NE0000068122055OI1SAM000001C00000119I20200713        055OI2SAM000002C00000219I20200714        055OI3SAM000003C00000319I20200715
056CABIN AIR FILT575859CABIN AIR FILTXXXXXXXXXXXXXXXXXXUNT002JAGF-PACE    1991XXXXXXXXXXXXXXNAPA AUTO DNAPA AUTO      094122020052219000 FEDDER RD                               EUGENE         OR000009730029100 GENTY DR                                ALTA           UT000008478439200 HOPE LN                                 LEXINGTON      VA0000020040056CA1NAP000005C00000519I20200717        056CA2NAP000006C00000619I20200718        056CA2NAP000006C00000619I20200719
057PCV VALVE58596061707PCV VALVE     XXXXXXXXXXXXXXXXXXUNT003PEU3008 SUV  1992XXXXXXXXXXXXXXFIRESTONE MFIRESTONE      091232020052319300 INKSTER RD                              GRAFTON        WV000002632129400 JANSEN DR                               OSHKOSH        WI000005499039500 KIPPLER LN                              CASPER         WY0000082001057PC1FIR000009C00000919I20200721        057PC2FIR000010C00001019I20200722        057PC2FIR000010C00001019I20200723
058IGNITION COIL5960616IGNITION COIL XXXXXXXXXXXXXXXXXXUNT004BMW228 GRAN C1993XXXXXXXXXXXXXXAUTO ZONE IAUTO ZONE      090132020052419600 LEMON ST                                NASHVILLE      TN000003858929700 MAPLE DR                                BURNS          OR000009792039800 NAPLES AVE                              CANTON         OH0000043001058IG1AUT000013C00001319I20200725        058IG2AUT000014C00001419I20200726        058IG3AUT000015C00001519I20200727
059IGNITION HOUSE606162IGNITION HOUSEXXXXXXXXXXXXXXXXXXUNT001CHRPACIFICA  1994XXXXXXXXXXXXXXWALMART   SWALMART        079322020052511000 OPAL ST                                 MONTGOMERY     AL000003650021100 PARK AVE                                KODIAK         AK000009975031200 QUIMBLE DR                              MESA           AZ0000085900059IG1WAL000017C00001719I20200729        059IG2WAL000018C00001819I20200730        059IG3WAL000019C00001919I20200801
060NGK GLOW PLUG6162636NGK GLOW PLUG XXXXXXXXXXXXXXXXXXUNT002FORMUSTANG   1995XXXXXXXXXXXXXXQUALITY AUDQUALITY AUTO   089132020052611300 LAPO ST                                 BILLINGS       MT000005900121400 KARP AVE                                OMAHA          NE000006936731500 BLIMIE DR                               RENO           NV0000088999060NG1QUA000021C00002119I20200802        060NG2QUA000025C00002519I20200803        060NG3QUA000029C00002919I20200804
061TRUNK LATCH626364656TRUNK LATCH   XXXXXXXXXXXXXXXXXXUNT003GM CAMERO    1996XXXXXXXXXXXXXXMERCEDES  MMERCEDES       098212020052711600 RIPPLE ST                               CARMEL         CA000009372321700 STARR AVE                               GREELEY        CO000008099931800 TOPPLE DR                               DIST OF COLUM  DC0000020001061TR1MER000001C00000165I20200806        061TR2MER000002C00000265I20200807        061TR3MER000003C00000365I20200808
062TRUNK COVER636465667TRUNK COVER   XXXXXXXXXXXXXXXXXXUNT004VW JETTA     1997XXXXXXXXXXXXXXPEUGOT    IPEUGOT         097122020052811900 EPPLE ST                                BIRMINGHAM     AL000003540022000 RASTA AVE                               HARLAN         KY000004260032100 EPPLETT DR                              GILETTE        WY0000083128062TR1PEU000005C00000565I20200810        062TR2PEU000006C00000665I20200811        062TR2PEU000006C00000765I20200813
063RADIO646566676869707RADIO         XXXXXXXXXXXXXXXXXXUNT001TOYCAMRY     1998XXXXXXXXXXXXXXCHRYSLER  SCHRYSLER       096332020052912200 UMPIRE ST                               DOUGLAS        GA000003111122300 VOXX AVE                                AUSTIN         MN000005639032400 WYMAN DR                                MANDAN         ND0000058856063RA1CHR000009C00000965I20200814        063RA2CHR000010C00001065I20200815        063RA3CHR000011C00001165I20200816
064CONSOLE6566676869707CONSOLE       XXXXXXXXXXXXXXXXXXUNT002JAGF-PACE    1999XXXXXXXXXXXXXXFORD AUTO DFORD AUTO      090112020053012500 XANAX ST                                DILAN          MT000005993722600 YACK AVE                                TUSCALOOSA     AL000003609932700 ZEBBRA DR                               TEMPE          AZ0000086200064CO1FOR000013C00001365I20200818        064CO2FOR000014C00001465I20200819        064CO2FOR000015C00001565I20200820
123MUFFLER1234567891011MUFFLER       MUFF0002MUFFLER123UNT003JAGF-PACE 30T2019              1234567890IKJ IMPORT PARTS0013120200826115 MAIN STREET                               SACRAMENTO     CA0000095822210 KING STREET                               OGDEN          UT0000084055311 PINE STREET                               BUTE           MT0000059032PO1234KJI000000C00003759I2020082620200905PO1235LMN000000G00000459I2020071520200918PO1236OPQ000000B00003391H2020080720200905
456REAR VIEW MIR0000000REAR VIEW MIR XXXXXXXXXXXXXXXXXXUNT001TOYCAMRY     1994XXXXXXXXXXXXXXTOYOTA    STOYOTA         093322018090111300 GEO ST                                  CHICAGO        IL000006003421400 NEON RD                                 GARY           IN000004788831500 CLARK DR                                AMES           IA0000050001456RE2TOY000017C00003599I20191217        456RE2TOY000018C00003699I20191218        456RE2TOY000019C00003699I20191218
532BRAKE PADS1389389283BRAKE PADS    XXXXXXXXXXXXXXXXXXUNT002FORMUSTANG   1991XXXXXXXXXXXXXXAAMACO    DAAMACO         09012201806011400 NAPER ST                                 CAMDEN         AR00000716012500 BRIGHT RD                                ARCADIA        CA00000900013600 LAMPIN DR                                ASPEN          CO0000080001532BR1AAM000005C00002399I20191205        532BR2AAM000006C00002499I20191206        532BR2AAM000006C00002499I2019120620200903
534EXHAUST PIPE00010030EXHAUST PIPE  XXXXXXXXXXXXXXXXXXUNT004VW JETTA     1993XXXXXXXXXXXXXXGENERAL MOIGENERAL MOTORS 092312018080111000 RED ST                                  CALHOUN        GA000003009921100 BROWN RD                                HANALEI        HI000009689831200 BLACK DR                                POCATELLO      ID0000083201534EX1GEN000013C00003199I20191213        534EX2GEN000014C00003299I20191214        534EX3GEN000014C00003299I20191215
724PHLANGE1123378938989PHLANGE       XXXXXXXXXXXXXXXXXXUNT003GM CAMERO    1992XXXXXXXXXXXXXXGOOD YEAR MGOOD YEAR      07923201807011700 APPLE ST                                 BRISTOL        CT00000065312800 PEAR RD                                  WILMINGTON     DE00000197803900 GRAPE DR                                 MIAMI          FL0000032004724MU1GOO000009C00002599I20191209        724MU2GOO000010C00002699I20191210        724MU3GOO000011C00002799I2019121120200902
789FUEL PUMP34567891011FUEL PUMP     MUFF0002MUFFLER123UNT003JAGF-PACE 30T2017              1234567890IKJ IMPORT PARTS0013120200826115 MAIN STREET                               SACRAMENTO     CA0000095822210 KING STREET                               OGDEN          UT0000084055311 PINE STREET                               BUTE           MT0000059032PO1234KJI000000C00003759I2020082620200905PO1235LMN000000G00000459I2020071520200918PO1236OPQ000000C00003391I2020080720200905
923BRAKE SHOES838789101BRAKE SHOES   XXXXXXXXXXXXXXXXXXUNT001CHRPACIFICA  2019XXXXXXXXXXXXXXOREILLEYS SOREILLEYS      08031201805011100 MAIN ST                                  ANNISTON       AL00000350042200 KING RD                                  ANCHORAGE      AK00000995013300 FRANKLIN DR                              AJO            AZ0000086176923BR1ORE000001C00001999I20191201        923BR2ORE000002C00002099I20191202        923BR3ORE000003C00002199I2019120320200904
